:020000040800F2
:1000000038070020D5010008D9010008DB010008ED
:10001000DD010008DF010008E10100080000000028
:10002000000000000000000000000000E3010008E4
:10003000E501000800000000E7010008E9010008F0
:10004000EB010008EB010008EB010008EB010008E0
:10005000EB010008EB010008EB010008EB010008D0
:10006000EB010008EB010008EB010008EB010008C0
:10007000EB010008EB010008EB010008EB010008B0
:10008000EB010008EB010008EB010008EB010008A0
:10009000EB010008EB010008EB010008EB01000890
:1000A000EB010008EB010008EB010008EB01000880
:1000B000EB010008EB010008EB010008EB01000870
:1000C000EB010008EB010008EB010008EB01000860
:1000D000EB0100082D060008EB010008EB01000809
:1000E000EB010008EB010008EB010008EB01000840
:1000F000EB010008EB010008EB010008EB01000830
:10010000EB010008EB010008EB010008EB0100081F
:10011000EB010008EB010008EB010008EB0100080F
:10012000EB010008EB010008EB010008EB010008FF
:1001300000F002F800F03FF80AA090E8000C8244BA
:100140008344AAF10107DA4501D100F034F8AFF297
:10015000090EBAE80F0013F0010F18BFFB1A43F0A5
:1001600001031847440C0000640C0000103A24BF3F
:1001700078C878C1FAD8520724BF30C830C144BF0C
:1001800004680C607047000000230024002500264E
:10019000103A28BF78C1FBD8520728BF30C148BFEA
:1001A0000B607047642900F07380002070471FB512
:1001B0001FBD10B510BD00F033F91146FFF7F7FF72
:1001C00000F0C4FA00F051F903B4FFF7F2FF03BCEA
:1001D00000F06EFA08480047FEE7FEE7FEE7FEE79C
:1001E000FEE7FEE7FEE7FEE7FEE7FEE70348044919
:1001F000044A054B70470000310100083801002017
:100200003807002038030020380300207047000022
:100210000FB4044910B503AA029800F0D3F810BC3B
:100220005DF814FB040000202DE9F0410E46044661
:10023000002020622046E168884730B3252805D099
:10024000D4E901219047206A401CF2E7E16820468A
:1002500000278847050018D0A5F14100192802D8C9
:1002600020354FF400673246294620462760FFF7C5
:1002700099FF40B1012804D0F61D26F00706083684
:10028000D8E7361DD6E72846DAE7206ABDE8F081D0
:100290002DE9F0410646002410687529314616A55F
:1002A00010D0AFF30080002802DA404213A507E027
:1002B00031688A0701D512A502E0490704D511A5C6
:1002C000012401E0AFF3008000210A2206F1240797
:1002D00009E0B0FBF2FCB0FBF2F302FB1C00303093
:1002E00078541846491C0028F3D123462A46304644
:1002F000BDE8F04100F00CB8000000002D00000047
:100300002B000000200000007047704770477047C6
:100310002DE9F0470D4699469246044600F124081F
:100320000168880604D5E06921F01001216000E031
:100330000120A84201DD471B00E00027A1697A19CE
:1003400002EB0900081AA0612078C00602D42046FA
:10035000AFF30080002608E0D4E901211AF8060076
:100360009047206A401C761C20624E45F4DB2078C2
:10037000C0060AD52046AFF3008006E0D4E901218B
:1003800030209047206A401C2062381EA7F10107E8
:10039000F4DC07E0D4E9012118F805009047206A51
:1003A000401C2062281EA5F10105F3DC2046AFF3B6
:1003B00000802078000602D50220BDE8F0870120E9
:1003C000FBE70000074B70B50D467B4400F011F8C9
:1003D0000446284600F020F810B14FF0FF3070BD01
:1003E000204670BD6303000001694A1C0261087861
:1003F000704700B58FB0CDE9013100210591054965
:100400007944CDE9031011466846FFF70DFF0FB0A0
:1004100000BD0000E5FFFFFF007B00F0800070479B
:10042000754600F029F8AE4605006946534620F0AF
:100430000700854618B020B5FFF7D8FEBDE820407C
:100440004FF000064FF000074FF000084FF0000B90
:1004500021F00701AC46ACE8C009ACE8C009ACE843
:10046000C009ACE8C0098D4670470446AFF3008070
:100470002046FFF7A9FE000000487047D400002086
:1004800000B5002015490861C860142048610020AB
:100490008861C8610846006840F0010008600846AD
:1004A00040680F4908400D494860084600680D49FA
:1004B00008400A4908600846006820F48020086067
:1004C0000846406820F4FE00486000208860002153
:1004D0004FF0006000F058F800BD0000001002402E
:1004E0000000FFF8FFFFF6FE2DE9F04107468846C1
:1004F00014461D46284600F033F8C5F1040007FAFB
:1005000000F60F20284100EA0800064306F00F0617
:10051000E21704EBD2625211920002F1E022D2F80B
:1005200000212146E31704EBD3635B11A4EB431CCA
:10053000012303FA0CF31A432046E31704EBD363B9
:100540005B119B0003F1E023C3F800210348005D29
:1005500040EA061001490855BDE8F08100E400E0DA
:100560000146072323EA01021202054B18684FF6E1
:10057000FF031840034B18431043014B18607047AA
:100580000CED00E00000FA05024A0A400243024B6B
:100590001A60704780FFFF1F08ED00E030B5044689
:1005A0000025FFF76DFF1F48006840F480301D49AB
:1005B000086000BF1B480068400C0028FAD04FF4C8
:1005C000806018494860A01EC4B20846406840EAEE
:1005D000844048600846406840F4803048601248D3
:1005E000006840F03200104908600E48006840F092
:1005F00080700C49086000BF0A480068400E00285F
:10060000FAD00848406840F002000649486005E01A
:1006100004484068C0F3870505F00305022DF7D1B3
:1006200030BD000000100240002002401D49098832
:1006300001F0200111B31B49091D0988C8B21A49EC
:10064000098801F40041C9B91749098801F48041BA
:1006500061B10A2803D00021134A118020E0124919
:10066000098841F40041104A118019E00D2806D193
:100670000D49098841F480410B4A118010E00A4974
:100680000988C1F30D01094A505407490988491CDA
:10069000054A118011460988C72901DD0021118012
:1006A0007047000000380140080000200C000020C6
:1006B00000BF70474FF0E021096921F004014FF0BD
:1006C000E0221161C21700EB5272C2F3C702074B5E
:1006D0001A701946097801EB4102C2EBC1114FF6BD
:1006E000FF7202EAC101024A118070470000002037
:1006F0000200002001460D4A12884A434FF0E023D1
:100700005A6100229A6101221A6100BF4FF0E02273
:10071000106900F001021AB100F48032002AF5D00D
:1007200000224FF0E0231A619A6170470200002016
:1007300000BF054A128802F04002002AF9D0C2B276
:10074000014B1B1D1A80704700380140002409200E
:10075000FFF724FF4820FFF7ADFF4FF4E1314820B9
:1007600000F010F809E0214604A0FFF751FD4FF416
:10077000FA70FFF7BFFF601CC4B2F4E7743A256457
:100780000D0A00002DE9F05F05460E46300100F02D
:10079000ABF981462E4905FB01F000F0A5F9824630
:1007A000494600F0BFF80746384600F07DF984B2AC
:1007B000204600F099F98346394600F075FA8246E2
:1007C0004FF0834100F0A4F9814600F06DF98046B6
:1007D0004FF6FF7000EA041404EB080084B21D48D1
:1007E000806940F004001B4988610846806940F434
:1007F000804088611848006820F47F6016490860CE
:100800000846006840F40B6008601248C06840F475
:1008100080401049C8600846C06820F48040C86025
:100820000E480480001D008842F20C0108430B4969
:10083000091D08800846008840F020000880022337
:10084000252203210846FFF74FFEBDE8F09F000078
:1008500040420F00001002400408014008380140E7
:1008600090EA010F48BF81F0004100F12E82421A48
:100870003CBF801A89184FEAD0524FF07F4C1CEAD7
:10088000410FA2EBD15318BF9CEA026F00F03B80EE
:100890004FF0004C4CEA00204CEA012121FA03FC05
:1008A00010EB0C0C1ED202F1FF325FEA1C2040EB71
:1008B000C25038BF70471CF07F0F4FEA400C18BF82
:1008C000BCF17F4F38BF7047C3F12003994008BF88
:1008D00020F00100BCF17F4F38BF7047A0F1C0404D
:1008E00000F0DDB94FEA3C00000A40EBC25028BFDF
:1008F0001CF0FF0F4FEA400CE6D018BFBCF17F4F51
:1009000038BF7047EAE79CEA026F05D010EA5C0F37
:1009100008BF00F00040704710B500F07AF900BF42
:1009200064FBBE3E4FF47F0C1CEAD0121EBF1CEAD3
:10093000D11392EA0C0F93EA0C0F00F0858090EA35
:10094000010F48BF42F4807240F4000C41F40000F3
:100950002CF07F4120F07F4000B58142A2EB0302E2
:100960000FF2081CACEB504EC0F100009EF800E006
:100970004FEA4E0E00FB0EFC38BF49004FEA2C1C1C
:1009800002F5FA020CFB0EF34FEACE1E4FEA112CD1
:100990004FEAC1210EEB635E42EB22420EFB0CFCE0
:1009A0004FEA1C5300FB03114FEA112C4FEA0131AF
:1009B0000EFB0CFC4FEADC4C00FB0C11C14228BFC3
:1009C00009184CEB03335DF804EB10EB410143EBEA
:1009D000C250B2F57C0F38BF704729D512F0F00F26
:1009E0001CBF00F1C04000F00040704700818283CE
:1009F0008485868788898B8C8D8E8F91929395962E
:100A000097999A9C9D9FA0A2A3A5A7A8AAACAEB0B7
:100A1000B2B3B5B7B9BCBEC0C2C5C7C9CCCED1D4BC
:100A2000D7D9DCDFE2E6E9ECF0F3F7FAFE000000EC
:100A30004FEA400C0CF1807CBCF17E4F28BF704720
:100A4000B0F1C04000F02BB990EA010F0CEAD113CD
:100A500048BF42F48072624538BF634507D213F441
:100A60007F0F16D080EA010000F00040704710B5FB
:100A700000F0CFF8097EFC3E00F005B880EA0100E6
:100A800000F00040704780EA010000F0004000F0F4
:100A900006B912F47F0F04BF0248704780EA0100D4
:100AA00000F0FDB80000C07FC10DD1F19E0206DB51
:100AB0004FEA002343F0004323FA02F0704700425C
:100AC00007D54FEA4001B1F1FE4F02D24FF00000CE
:100AD000704710B500F09DF84992248000207047BF
:100AE0006FEA200070470000B0FA80F310FA03F2BA
:100AF000C3F19D030AD0D90501EB1220530638BF7C
:100B0000704700F1010008BF20F0010070470000AD
:100B10004FF47F0C1CEAD0121EBF1CEAD11392EADC
:100B20000C0F93EA0C0F00F0478090EA010F48BFCA
:100B300042F480724FF0004C4CEA00204CEA012154
:100B400002EB0302A0FB0113A2F50002002918BF6B
:100B500043F001035B0028BF4FEA330342EB22421C
:100B60005FEA132C4CEBC2502EBFBCEB436FB2F5C7
:100B70007C0F70474FEA036CBCF1004F08BF20F0B8
:100B80000100B2F57C0F38BF70470BD582F0FF0231
:100B900012F5803FC8BF704700F1C040D8BF00F0D9
:100BA0000040704700F5000C5FEA4C0C48BF7047EE
:100BB000B0F1C04000F073B890EA010F0CEAD11315
:100BC00048BF42F48072624538BF634504D280EA70
:100BD000010000F00040704710B500F01AF800BFA7
:100BE0008900013E00F007B800F009B85FEA410C47
:100BF0005FEA1C6C08D080EA010000F050B85FEAA0
:100C0000400C5FEA1C6CF6D14FF00040A0F580006C
:100C100070470EF1020E2EF0030E5EF8044B2442D4
:100C200004D44FEA4102B2F17F4F11D84FEA40039A
:100C3000B3F17F4F0CD80ED14FEAD07CB2F17F4F89
:100C40000CEB4C0C0CF1020C08BF4CEBD17C04E01B
:100C50004FF0080C01E04FEAD17C0CEB4C0324FA76
:100C600003F404F00704B4F1040C06D20EEB840C78
:100C7000BDE810404CF0010C6047DFE80CF00708BD
:100C800002024FF00040A0F5800010BD084642006F
:100C900018BFD2F1807288BF00F0004010BDFF2164
:100CA00041EAD050C005704780F0004090EA010F43
:100CB0007FF5DDAD81F0004100F007B890EA010F4B
:100CC00048BF81F000413FF5D2AD421A04D882F00E
:100CD0000042A0EB020011444FEAD0524FF07F4C8B
:100CE0001CEA410FA2EBD15318BF9CEA026F4AD015
:100CF0004FF0004C4CEA00204CEA012121FA03FCA1
:100D0000B0EB0C0C0FD412F0FE0F36D05FEA4C00A3
:100D10001DD5001240EBC25038BF70471CF03F0F8A
:100D200018BF70470BE0A2F101025FEA1C2040EB04
:100D3000C25038BF70471CF07F0F18BF7047C3F117
:100D40002003994014BF401E20F001007047800826
:100D50004FEA122308BF7047B0FA80FCA2EB0C02E6
:100D6000CCF1280C60FA0CF093EA122F04BF00EBD0
:100D7000C25070474FEAC3707047130A5FEADC1035
:100D800008BF7047F6E79CEA026F04D010EA5C0FD8
:100D900008BF0020704710B5FFF73BFF40DFF63E6D
:100DA00081F0004070470000C80D000800000020DE
:100DB0000C0000006C010008D40D00080C0000209D
:100DC0002C0700008801000800000000000000005F
:040DD000000000001F
:0400000508000131BD
:00000001FF
