:020000040800F2
:1000000090060020CD010008C50600086105000823
:10001000C1060008B5020008130C0008000000002B
:10002000000000000000000000000000650800085B
:10003000B9020008000000004D0700087909000817
:10004000E7010008E7010008E7010008E7010008F0
:10005000E7010008E7010008E7010008E7010008E0
:10006000E7010008E7010008BD020008E7010008F9
:10007000E7010008E7010008E7010008E7010008C0
:10008000E7010008E7010008E7010008E7010008B0
:10009000E7010008E7010008E7010008E7010008A0
:1000A000E7010008E7010008E7010008E701000890
:1000B000E7010008E7010008E7010008E701000880
:1000C000E7010008E7010008E7010008E701000870
:1000D000E7010008E7010008E7010008DD09000862
:1000E000E7010008E7010008E7010008E701000850
:1000F000E7010008E7010008E7010008E701000840
:10010000E7010008E7010008E7010008E70100082F
:10011000E7010008E7010008E7010008E70100081F
:10012000E7010008E7010008E7010008E70100080F
:1001300000F002F800F03AF80AA090E8000C8244BF
:100140008344AAF10107DA4501D100F02FF8AFF29C
:10015000090EBAE80F0013F0010F18BFFB1A43F0A5
:10016000010318478C0C0000AC0C0000103A24BFAF
:1001700078C878C1FAD8520724BF30C830C144BF0C
:1001800004680C607047000000230024002500264E
:10019000103A28BF78C1FBD8520728BF30C148BFEA
:1001A0000B6070471FB51FBD10B510BD00F031F8D2
:1001B0001146FFF7F7FF00F077FD00F04FF803B4AA
:1001C000FFF7F2FF03BC00F053F800000948804736
:1001D00009480047FEE7FEE7FEE7FEE7FEE7FEE729
:1001E000FEE7FEE7FEE7FEE704480549054A064B41
:1001F000704700007D0900083101000890000020D0
:100200009006002090020020900200207047704766
:100210007047754600F028F8AE460500694653461B
:1002200020F00700854618B020B5FFF7DDFFBDE8D8
:1002300020404FF000064FF000074FF000084FF04D
:10024000000B21F00701AC46ACE8C009ACE8C009DE
:10025000ACE8C009ACE8C0098D4670470446AFF36E
:1002600000802046FFF7ABFF0048704730000020B9
:1002700001491820ABBEFEE72600020070470000CF
:1002800008B50121082000F073FA10208DF8030052
:100290000001ADF8000003208DF802006946034814
:1002A00000F0CAF800200249086008BD000C0140B7
:1002B000A081214200BFFEE77047000010B50A2070
:1002C00000F0CCFC10210C4800F041F980B90B483B
:1002D000006808B9012000E00020084908600848CB
:1002E000D0F8940108B9012000E000200549086019
:1002F000102000F031F810BD001801409481214217
:1003000000002342940123420EB500F02BF9012195
:10031000084600F02DFA0421084600F06DF8102080
:10032000019001208DF80A0000208DF808000C20B3
:100330008DF8090001A800F015F80A208DF80000DA
:1003400001208DF8030002208DF801008DF80200D5
:10035000684600F0B9F90EBD014908607047000019
:1003600014040140002123498279002A3AD00A4628
:10037000126803689A430B461A600A1D12680368E4
:100380009A430B1D1A60027911440A6803681A43E4
:100390000A60184A0832126803689A43154B0833FA
:1003A0001A601A1D126803689A43124B0C331A60C4
:1003B0004279102A0ED11A1F126803681A430D4B96
:1003C00008331A601A1D126803681A43094B0C336C
:1003D0001A600DE00749427911440A6803681A431C
:1003E0000A6005E0027911440A6803689A430A60CA
:1003F000704700000004014030B500228B071C0F3D
:100400000F2303FA04F20B4B8C1053F82430934360
:10041000084C8D1044F8253023468C1053F82430B6
:100420008C07240F00FA04F42343024C8D1044F887
:10043000253030BD080001402DE9F041024600257D
:100440000026002000230024002791F803C00CF0B0
:100450000F0591F803C00CF0100CBCF1000F03D095
:1004600091F802C04CEA050591F800C0BCF1000FFC
:1004700031D0146800202BE04FF0010C0CFA00F38F
:10048000B1F800C00CEA03069E4220D183004FF071
:100490000F0C0CFA03F7BC4305FA03FC4CEA040406
:1004A00091F803C0BCF1280F06D14FF0010C0CFAF3
:1004B00000FCC2F814C00AE091F803C0BCF1480F78
:1004C00005D14FF0010C0CFA00FCC2F810C0401C22
:1004D0000828D1D31460B1F800C0BCF1FF0F34DD9F
:1004E000546800202EE000F1080C4FF0010808FAD3
:1004F0000CF3B1F800C00CEA03069E4221D1830040
:100500004FF00F0C0CFA03F7BC4305FA03FC4CEA5E
:10051000040491F803C0BCF1280F05D100F1080CC8
:1005200008FA0CF8C2F8148091F803C0BCF1480F27
:1005300007D100F1080C4FF0010808FA0CF8C2F8D6
:100540001080401C0828CED35460BDE8F0810246DC
:10055000002093680B400BB1012000E000207047A1
:1005600000BFFEE708B50121442000F001F9282072
:100570008DF803000120ADF8000069460648FFF73A
:100580005BFF48208DF803001C20ADF80000694691
:100590000248FFF751FF08BD000801400018014064
:1005A00010B500F039FB2C480078002837D0102116
:1005B0002A48FFF7CCFF78B108212848FFF7C7FF8A
:1005C00050B104212548FFF7C2FF28B1012124487A
:1005D000FFF7BDFF012822D10A2000F03FFB0020D9
:1005E0001D49087010211D48FFF7B1FF08B901200F
:1005F00010BD08211948FFF7AAFF08B90220F7E744
:1006000004211648FFF7A3FF08B90320F0E70121F2
:100610001348FFF79CFF01281BD10420E8E71021B5
:100620000E48FFF794FF012813D108210B48FFF76C
:100630008EFF01280DD104210848FFF788FF01280B
:1006400007D101210648FFF782FF10B901200249B6
:1006500008700020CCE700002C00002000180140AA
:100660000008014008B50121482000F081F8102061
:100670008DF803002020ADF8000003208DF8020063
:1006800069460B48FFF7D8FE10208DF803002020A4
:10069000ADF8000003208DF8020069460548FFF719
:1006A000CBFE0120044908600449C1F8940108BD4B
:1006B000000C0140001801409481214200002342B7
:1006C00000BFFEE77047000070B5002100230F2235
:1006D000C47804B3154C246804F4E064C4F5E06401
:1006E000210AC1F10403CA40447804FA03F1847872
:1006F0001440214309010E4C0678A155047804F0FA
:100700001F050124AC4005786D11AD0005F1E02511
:10071000C5F8004109E0047804F01F050124AC404D
:10072000044D0678761145F8264070BD0CED00E0CA
:1007300000E400E080E100E002490143024A116068
:10074000704700000000FA050CED00E07047000063
:1007500029B1064AD2690243044BDA6104E0034A34
:10076000D2698243014BDA617047000000100240F9
:1007700029B1064A92690243044B9A6104E0034A94
:1007800092698243014B9A61704700000010024059
:1007900030B500210022002400232D4D6D6805F0A6
:1007A0000C0121B1042905D0082923D105E0294DE8
:1007B000056022E0274D05601FE0254D6D6805F4BA
:1007C0007012234D6D6805F48034022505EB9242CA
:1007D0001CB9214D554305600BE01D4D6D6805F4B6
:1007E00000351DB11C4D5543056002E0194D5543C0
:1007F000056002E0174D056000BF00BF144D6D6835
:1008000005F0F0010909154D6B5C0568DD40456098
:100810000F4D6D6805F4E061090A104D6B5C456889
:10082000DD4085600A4D6D6805F46051C90A0B4DC5
:100830006B5C4568DD40C560054D6D6805F4404161
:10084000890B074D6B5CC568B5FBF3F5056130BDE1
:100850000010024000127A0000093D00180000203C
:1008600028000020704710B500F002F810BD00000D
:100870000CB50020019000903348006840F48030AF
:100880003149086000BF3048006800F40030009033
:100890000198401C0190009818B90198B0F5A06F1C
:1008A000F1D12948006800F4003010B10120009017
:1008B00001E0002000900098012843D123480068FF
:1008C00040F01000214908600846006820F003004D
:1008D00008600846006840F0020008601A48406856
:1008E000194948600846406848600846406840F436
:1008F000806048600846406820F47C1048600846E4
:10090000406840F4E81048600846006840F0807095
:10091000086000BF0C48006800F000700028F9D0A3
:100920000948406820F003000749486008464068CD
:1009300040F00200486000BF0348406800F00C002F
:100940000828F9D10CBD0000001002400020024030
:10095000042808D14FF0E021096941F004014FF06B
:10096000E022116107E04FF0E021096921F0040164
:100970004FF0E022116170477047000010B5134836
:10098000006840F0010011490860084640681049BD
:1009900008400E494860084600680E4908400B4967
:1009A00008600846006820F4802008600846406817
:1009B00020F4FE0048604FF41F008860FFF753FFEB
:1009C0004FF000600449086010BD000000100240B4
:1009D0000000FFF8FFFFF6FE08ED00E010B540F262
:1009E0002551214800F054F800283CD01E4800F062
:1009F0000BF9C4B2002C36DD012C04D0022C0BD034
:100A0000032C24D111E01948006808B9012000E046
:100A100000201649086025E01548006808B9012043
:100A200000E00020124908601CE01048006808B986
:100A3000012000E000200D4908600E48D0F8940124
:100A400008B9012000E00020094908600AE00748D1
:100A50000C30006808B9012000E0002003490C3187
:100A6000086000BF00BF10BD0048004094812142D3
:100A7000940123420000234221B1828942F40052B2
:100A8000828104E082894DF6FF731A4082817047AB
:100A900070B50246002400230025002040F66A16A7
:100AA000B14200D100BFC1F3421501F01F0301267E
:100AB00006FA03F3012D02D19689334006E0022D98
:100AC00002D1168A334001E0968A33400C12012687
:100AD00006FA04F41688344013B10CB1012000E08A
:100AE000002070BDF0B5034600240026002500203C
:100AF00040F66A17B94200D100BF1846C1F342144C
:100B000001F01F06012707FA06F5012C01D10C3070
:100B100004E0022C01D1103000E014301AB1076853
:100B20002F43076002E00768AF430760F0BD000095
:100B30002DE9F04786B005460E460024A24600BFC8
:100B4000A1460027B08900B100BF2F462C8A4CF681
:100B5000FF700440F08804432C82AC894EF6F310F9
:100B60000440B08831890843718908430443AC814B
:100B7000AC8A4FF6FF400440B0890443AC8201A820
:100B8000FFF706FE1F48874202D1DDF810A001E002
:100B9000DDF80CA0A88900F4004040B10AEBCA00BF
:100BA00000EB0A1031684900B0FBF1F807E00AEBEE
:100BB000CA0000EB0A1031688900B0FBF1F864202C
:100BC000B8FBF0F004012009642101FB1089A88919
:100BD00000F4004040B1322000EBC900B0FBF1F05E
:100BE00000F00700044308E0322000EB0910642104
:100BF000B0FBF1F000F00F0004432C8106B0BDE81B
:100C0000F08700000038014001468888C0F30800E2
:100C1000704700BFFEE7000010B56FF00400FFF75B
:100C200097FE0A4800680A49B0FBF1F009490870CC
:100C30000846007800EB4001C1EBC0104FF6FF7191
:100C400001EAC0000449088010BD00000000002037
:100C500000127A0014000020160000200146114AFC
:100C600012884A434FF0E0235A6100229A611A46E3
:100C7000126942F001021A6100BF4FF0E0221069D0
:100C800000F001021AB100F48032002AF5D04FF0D2
:100C9000E022126922F001024FF0E0231A610022E3
:100CA0009A61704716000020FFF7DCFCFFF7E8FAB6
:100CB000FFF758FC00201F49086000F041F8FFF7DB
:100CC00023FB36E04FF4A060FFF736FDFFF768FC2A
:100CD0000446002C2DDD022C04D0032C0BD0042C58
:100CE00026D11AE01448006808B9012000E000206D
:100CF000114908601CE00F48006808B9012000E0B5
:100D000000200C4908600D48D0F8940108B9012072
:100D100000E00020084908600AE006480C3000683E
:100D200008B9012000E0002002490C31086000BF32
:100D300000BFC7E79481214294012342000023426F
:100D400000B587B001210820FFF712FD01218804BA
:100D5000FFF7FEFC18208DF81B004FF48060ADF803
:100D6000180003208DF81A0006A91F48FFF764FB3E
:100D700048208DF81B004FF40060ADF818000320E8
:100D80008DF81A0006A91848FFF756FB4FF4E1301A
:100D900002900020ADF814000C20ADF812000020E5
:100DA000ADF81000ADF80E00ADF80C0002A90F4828
:100DB000FFF7BEFE01210D48FFF75EFE012240F263
:100DC00025510A48FFF78EFE27208DF804000120E8
:100DD0008DF807008DF805008DF8060001A8FFF7D3
:100DE00073FC07B000BD0000000C0140004800404B
:100DF000100E000800000020300000006C01000808
:100E0000400E000830000020600600008801000845
:100E100000A24A04000000000000000001020304D8
:100E2000060708090000000000000000010203049A
:100E30000102030406070809020406080100000075
:04000005080001CD21
:00000001FF
