:020000040800F2
:1000000078060020CD010008A5040008950300082B
:10001000A104000875020008410600080000000065
:10002000000000000000000000000000C9040008FB
:100030007902000800000000A7040008DD050008A0
:10004000E7010008E7010008E7010008E7010008F0
:10005000E7010008E7010008E7010008E7010008E0
:10006000E7010008E7010008E7010008E7010008D0
:10007000E7010008E7010008E7010008E7010008C0
:10008000E7010008E7010008E7010008E7010008B0
:10009000E7010008E7010008E7010008E7010008A0
:1000A000E7010008E7010008E7010008E701000890
:1000B000E7010008E7010008E7010008E701000880
:1000C000E7010008E7010008E7010008E701000870
:1000D000E7010008E7010008E7010008E701000860
:1000E000E7010008E7010008E7010008E701000850
:1000F000E7010008E7010008E7010008E701000840
:10010000E7010008E7010008E7010008E70100082F
:10011000E7010008E7010008E7010008E70100081F
:10012000E7010008E7010008E7010008E70100080F
:1001300000F002F800F03AF80AA090E8000C8244BF
:100140008344AAF10107DA4501D100F02FF8AFF29C
:10015000090EBAE80F0013F0010F18BFFB1A43F0A5
:1001600001031847B0050000D0050000103A24BF75
:1001700078C878C1FAD8520724BF30C830C144BF0C
:1001800004680C607047000000230024002500264E
:10019000103A28BF78C1FBD8520728BF30C148BFEA
:1001A0000B6070471FB51FBD10B510BD00F033F8D0
:1001B0001146FFF7F7FF00F08FFA00F051F803B493
:1001C000FFF7F2FF03BC00F03DFA0000094880474A
:1001D00009480047FEE7FEE7FEE7FEE7FEE7FEE729
:1001E000FEE7FEE7FEE7FEE704480549054A064B41
:1001F00070470000E1050008310100087800002088
:1002000078060020780200207802002070477047AE
:10021000704770477047754600F028F8AE460500F5
:100220006946534620F00700854618B020B5FFF711
:10023000DBFFBDE820404FF000064FF000074FF015
:1002400000084FF0000B21F00701AC46ACE8C009F4
:10025000ACE8C009ACE8C009ACE8C0098D467047FD
:100260000446AFF300802046FFF7A9FF004870471F
:100270001800002000BFFEE770472DE9F04102465C
:1002800000250026002000230024002791F803C049
:100290000CF00F0591F803C00CF0100CBCF1000F2E
:1002A00003D091F802C04CEA050591F800C0BCF1FA
:1002B000000F31D0146800202BE04FF0010C0CFA35
:1002C00000F3B1F800C00CEA03069E4220D183007F
:1002D0004FF00F0C0CFA03F7BC4305FA03FC4CEA91
:1002E000040491F803C0BCF1280F06D14FF0010CB3
:1002F0000CFA00FCC2F814C00AE091F803C0BCF18B
:10030000480F05D14FF0010C0CFA00FCC2F810C0E8
:10031000401C0828D1D31460B1F800C0BCF1FF0F15
:1003200034DD546800202EE000F1080C4FF0010885
:1003300008FA0CF3B1F800C00CEA03069E4221D182
:1003400083004FF00F0C0CFA03F7BC4305FA03FCD3
:100350004CEA040491F803C0BCF1280F05D100F168
:10036000080C08FA0CF8C2F8148091F803C0BCF12C
:10037000480F07D100F1080C4FF0010808FA0CF8FB
:10038000C2F81080401C0828CED35460BDE8F0812C
:100390000161704700BFFEE74CF6CC4001490860A0
:1003A000704700000030004070B505460C4645F22D
:1003B000555000F01FF8284600F010F8204600F0D5
:1003C00013F800F003F8FFF7E7FF70BD4AF6AA2024
:1003D0000149086070470000003000400149486052
:1003E00070470000003000400149886070470000FD
:1003F00000300040014908607047000000300040B4
:1004000008B50121442000F04FF848208DF8030082
:100410001C20ADF8000003208DF802006946084852
:10042000FFF72BFF28208DF803000120ADF8000016
:1004300003208DF8020069460248FFF71EFF08BD41
:10044000001801400008014008B50121482000F0D3
:100450002BF810208DF803002020ADF800000320B9
:100460008DF8020069460C48FFF707FF10208DF851
:1004700003002020ADF8000003208DF8020069463B
:100480000648FFF7FAFE20210348FFF781FF2021ED
:100490000248FFF77DFF08BD000C01400018014035
:1004A00000BFFEE77047704729B1064A92690243D0
:1004B000044B9A6104E0034A92698243014B9A61BA
:1004C0007047000000100240704710B500F002F8BD
:1004D00010BD00000CB5002001900090334800686A
:1004E00040F480303149086000BF3048006800F4B3
:1004F000003000900198401C0190009818B90198B4
:10050000B0F5A06FF1D12948006800F4003010B1B7
:100510000120009001E0002000900098012843D1C4
:100520002348006840F01000214908600846006830
:1005300020F0030008600846006840F002000860F0
:100540001A484068194948600846406848600846AB
:10055000406840F4806048600846406820F47C10A1
:1005600048600846406840F4E81048600846006863
:1005700040F08070086000BF0C48006800F0007018
:100580000028F9D00948406820F003000749486076
:100590000846406840F00200486000BF03484068D9
:1005A00000F00C000828F9D10CBD0000001002403A
:1005B00000200240042808D14FF0E021096941F0F1
:1005C00004014FF0E022116107E04FF0E0210969DA
:1005D00021F004014FF0E0221161704770470000E4
:1005E00010B51348006840F0010011490860084642
:1005F0004068104908400E494860084600680E49A6
:1006000008400B4908600846006820F48020086014
:100610000846406820F4FE0048604FF41F008860E0
:10062000FFF753FF4FF000600449086010BD000061
:10063000001002400000FFF8FFFFF6FE08ED00E0AA
:1006400000BFFEE700BF704710B56FF00400FFF772
:10065000B1FF0A4800680A49B0FBF1F00949087087
:100660000846007800EB4001C1EBC0104FF6FF7167
:1006700001EAC0000449088010BD0000000000200D
:1006800000127A0014000020160000200146114AD2
:1006900012884A434FF0E0235A6100229A611A46B9
:1006A000126942F001021A6100BF4FF0E0221069A6
:1006B00000F001021AB100F48032002AF5D04FF0A8
:1006C000E022126922F001024FF0E0231A610022B9
:1006D0009A61704716000020FFF7B6FEFFF790FE04
:1006E000FFF7B2FFC820FFF7D1FF002007490860DD
:1006F00040F271210420FFF757FE05E0044800682E
:10070000012801D1FFF762FEF8E700009481214241
:1007100000012142340700080000002018000000FA
:100720006C0100084C07000818000020600600005B
:100730008801000800A24A04000000000000000038
:0C07400001020304060708090000000085
:0400000508000131BD
:00000001FF
