:020000040800F2
:1000000030070020CD010008830200087B020008B1
:100010007F02000875020008BB0400080000000011
:10002000000000000000000000000000870200083F
:100030007902000800000000850200087103000832
:10004000E7010008E7010008E7010008E7010008F0
:10005000E7010008E7010008E7010008E7010008E0
:10006000E7010008E7010008E7010008E7010008D0
:10007000E7010008E7010008E7010008E7010008C0
:10008000E7010008E7010008E7010008E7010008B0
:10009000E7010008E7010008E7010008E7010008A0
:1000A000E7010008E7010008E7010008E701000890
:1000B000E7010008E7010008E7010008E701000880
:1000C000E7010008E7010008E7010008E701000870
:1000D000E7010008D5030008E7010008E701000870
:1000E000E7010008E7010008E7010008E701000850
:1000F000E7010008E7010008E7010008E701000840
:10010000E7010008E7010008E7010008E70100082F
:10011000E7010008E7010008E7010008E70100081F
:10012000E7010008E7010008E7010008E70100080F
:1001300000F002F800F03AF80AA090E8000C8244BF
:100140008344AAF10107DA4501D100F02FF8AFF29C
:10015000090EBAE80F0013F0010F18BFFB1A43F0A5
:10016000010318476403000084030000103A24BF11
:1001700078C878C1FAD8520724BF30C830C144BF0C
:1001800004680C607047000000230024002500264E
:10019000103A28BF78C1FBD8520728BF30C148BFEA
:1001A0000B6070471FB51FBD10B510BD00F033F8D0
:1001B0001146FFF7F7FF00F084F900F051F803B49F
:1001C000FFF7F2FF03BC00F07AF90000094880470E
:1001D00009480047FEE7FEE7FEE7FEE7FEE7FEE729
:1001E000FEE7FEE7FEE7FEE704480549054A064B41
:1001F000704700007503000831010008300100203D
:100200003007002030030020300300207047704783
:10021000704770477047754600F028F8AE460500F5
:100220006946534620F00700854618B020B5FFF711
:10023000DBFFBDE820404FF000064FF000074FF015
:1002400000084FF0000B21F00701AC46ACE8C009F4
:10025000ACE8C009ACE8C009ACE8C0098D467047FD
:100260000446AFF300802046FFF7A9FF004870471F
:10027000D000002000BFFEE7704700BFFEE700BFD0
:10028000FEE770477047704710B500F001F810BDE9
:100290000CB50020019000903348006840F4803095
:1002A0003149086000BF3048006800F40030009019
:1002B0000198401C0190009818B90198B0F5A06F02
:1002C000F1D12948006800F4003010B101200090FD
:1002D00001E0002000900098012843D123480068E5
:1002E00040F01000214908600846006820F0030033
:1002F00008600846006840F0020008601A4840683C
:10030000194948600846406848600846406840F41B
:10031000806048600846406820F47C1048600846C9
:10032000406840F4E81048600846006840F080707B
:10033000086000BF0C48006800F000700028F9D089
:100340000948406820F003000749486008464068B3
:1003500040F00200486000BF0348406800F00C0015
:100360000828F9D10CBD0000001002400020024016
:100370007047000010B51348006840F001001149B3
:10038000086008464068104908400E494860084621
:1003900000680E4908400B4908600846006820F4D0
:1003A000802008600846406820F4FE0048604FF452
:1003B0001F008860FFF768FF4FF000600449086085
:1003C00010BD0000001002400000FFF8FFFFF6FE25
:1003D00008ED00E010B540F225511D4800F03EF850
:1003E00010B31B4800F064F8C4B21A48008800F447
:1003F0000040C8B91748008800F4804060B10A2C5A
:1004000003D000201349088020E01248008840F4FF
:1004100000401049088019E00D2C06D10D480088D5
:1004200040F480400B49088010E00A480088C0F37F
:100430000D0009490C5407480088401C05490880F4
:1004400008460088C72801DD0020088010BD000094
:1004500000380140040000200800002070B502466A
:10046000002400230025002040F66A16B14200D186
:1004700000BFC1F3421501F01F03012606FA03F382
:10048000012D02D19689334006E0022D02D1168A51
:10049000334001E0968A33400C12012606FA04F438
:1004A0001688344013B10CB1012000E0002070BD6B
:1004B00001468888C0F30800704700BFFEE700BF10
:1004C000704700BFFEE70000E804000800000020BD
:1004D000080000006C010008F0040008080000207B
:1004E000280700008801000800000000000000004C
:0400000508000131BD
:00000001FF
