:020000040800F2
:1000000078060020CD01000889040008A303000839
:10001000A70300087F020008BF08000800000000D6
:10002000000000000000000000000000B90500080A
:100030008302000800000000A1040008A5060008D3
:10004000E7010008E7010008E7010008E7010008F0
:10005000E7010008E7010008E7010008E7010008E0
:10006000E7010008E7010008E7010008E7010008D0
:10007000E7010008E7010008E7010008E7010008C0
:10008000E7010008E7010008E7010008E7010008B0
:10009000E7010008E7010008E7010008E7010008A0
:1000A000E7010008E7010008E7010008E701000890
:1000B000E7010008E7010008E7010008E701000880
:1000C000E7010008E7010008E7010008E701000870
:1000D000E701000809070008E7010008E701000838
:1000E000E7010008E7010008E7010008E701000850
:1000F000E7010008E7010008E7010008E701000840
:10010000E7010008E7010008E7010008E70100082F
:10011000E7010008E7010008E7010008E70100081F
:10012000E7010008E7010008E7010008E70100080F
:1001300000F002F800F03AF80AA090E8000C8244BF
:100140008344AAF10107DA4501D100F02FF8AFF29C
:10015000090EBAE80F0013F0010F18BFFB1A43F0A5
:1001600001031847BC070000DC070000103A24BF59
:1001700078C878C1FAD8520724BF30C830C144BF0C
:1001800004680C607047000000230024002500264E
:10019000103A28BF78C1FBD8520728BF30C148BFEA
:1001A0000B6070471FB51FBD10B510BD00F031F8D2
:1001B0001146FFF7F7FF00F085FB00F04FF803B49E
:1001C000FFF7F2FF03BC00F053F800000948804736
:1001D00009480047FEE7FEE7FEE7FEE7FEE7FEE729
:1001E000FEE7FEE7FEE7FEE704480549054A064B41
:1001F00070470000A90600083101000878000020BF
:1002000078060020780200207802002070477047AE
:100210007047754600F028F8AE460500694653461B
:1002200020F00700854618B020B5FFF7DDFFBDE8D8
:1002300020404FF000064FF000074FF000084FF04D
:10024000000B21F00701AC46ACE8C009ACE8C009DE
:10025000ACE8C009ACE8C0098D4670470446AFF36E
:1002600000802046FFF7ABFF0048704714000020D5
:1002700001491820ABBEFEE726000200704700BF10
:10028000FEE770472DE9F0410246002500260020D8
:1002900000230024002791F803C00CF00F0591F80B
:1002A00003C00CF0100CBCF1000F03D091F802C099
:1002B0004CEA050591F800C0BCF1000F31D014687C
:1002C00000202BE04FF0010C0CFA00F3B1F800C055
:1002D0000CEA03069E4220D183004FF00F0C0CFA6B
:1002E00003F7BC4305FA03FC4CEA040491F803C08D
:1002F000BCF1280F06D14FF0010C0CFA00FCC2F83B
:1003000014C00AE091F803C0BCF1480F05D14FF0CA
:10031000010C0CFA00FCC2F810C0401C0828D1D314
:100320001460B1F800C0BCF1FF0F34DD5468002048
:100330002EE000F1080C4FF0010808FA0CF3B1F8B8
:1003400000C00CEA03069E4221D183004FF00F0C3F
:100350000CFA03F7BC4305FA03FC4CEA040491F8D9
:1003600003C0BCF1280F05D100F1080C08FA0CF805
:10037000C2F8148091F803C0BCF1480F07D100F116
:10038000080C4FF0010808FA0CF8C2F81080401C65
:100390000828CED35460BDE8F08141617047016107
:1003A000704700BFFEE700BFFEE7000008B501216F
:1003B000482000F087F810208DF803002020ADF8C9
:1003C000000003208DF8020069460C48FFF75AFF31
:1003D00010208DF803002020ADF8000003208DF8D8
:1003E000020069460648FFF74DFF20210348FFF74A
:1003F000D6FF20210248FFF7D2FF08BD000C0140C4
:100400000018014000B585B00121042000F05AF821
:100410000121480400F046F818208DF8130004204C
:10042000ADF8100003208DF8120004A91448FFF75E
:1004300029FF04208DF813000820ADF810000320D8
:100440008DF8120004A90E48FFF71CFF4FF4E130AD
:1004500000900020ADF80C000C20ADF80A00002040
:10046000ADF80800ADF80600ADF80400694605488F
:1004700000F0B0F90121034800F076F905B000BDA5
:100480000008014000440040704700000249014359
:10049000024A1160704700000000FA050CED00E010
:1004A0007047000029B1064AD2690243044BDA6161
:1004B00004E0034AD2698243014BDA6170470000CD
:1004C0000010024029B1064A92690243044B9A6126
:1004D00004E0034A92698243014B9A61704700002D
:1004E0000010024030B500210022002400232D4DD1
:1004F0006D6805F00C0121B1042905D0082923D12C
:1005000005E0294D056022E0274D05601FE0254DDF
:100510006D6805F47012234D6D6805F48034022572
:1005200005EB92421CB9214D554305600BE01D4D72
:100530006D6805F400351DB11C4D5543056002E0A2
:10054000194D5543056002E0174D056000BF00BF1F
:10055000144D6D6805F0F0010909154D6B5C0568D7
:10056000DD4045600F4D6D6805F4E061090A104DEE
:100570006B5C4568DD4085600A4D6D6805F460512F
:10058000C90A0B4D6B5C4568DD40C560054D6D6863
:1005900005F44041890B074D6B5CC568B5FBF3F56D
:1005A000056130BD0010024000127A0000093D00D4
:1005B0000000002010000020704710B500F002F885
:1005C00010BD00000CB50020019000903348006879
:1005D00040F480303149086000BF3048006800F4C2
:1005E000003000900198401C0190009818B90198C3
:1005F000B0F5A06FF1D12948006800F4003010B1C7
:100600000120009001E0002000900098012843D1D3
:100610002348006840F0100021490860084600683F
:1006200020F0030008600846006840F002000860FF
:100630001A484068194948600846406848600846BA
:10064000406840F4806048600846406820F47C10B0
:1006500048600846406840F4E81048600846006872
:1006600040F08070086000BF0C48006800F0007027
:100670000028F9D00948406820F003000749486085
:100680000846406840F00200486000BF03484068E8
:1006900000F00C000828F9D10CBD00000010024049
:1006A000002002407047000010B51348006840F079
:1006B00001001149086008464068104908400E4989
:1006C0004860084600680E4908400B490860084623
:1006D000006820F4802008600846406820F4FE008E
:1006E00048604FF41F008860FFF767FF4FF000601D
:1006F0000449086010BD0000001002400000FFF82F
:10070000FFFFF6FE08ED00E010B540F2255113485A
:1007100000F036F808B3114800F0C8F80446002C81
:100720001BDDA1B20D4800F0C6F8012C02D0022C4E
:1007300012D108E020210A48FFF731FE20210948A4
:10074000FFF72BFE08E020210648FFF728FE2021B6
:100750000348FFF722FE00BF00BF10BD0038014074
:10076000000C01400018014021B1828942F400527E
:10077000828104E082894DF6FF731A4082817047BE
:1007800070B50246002400230025002040F66A16BA
:10079000B14200D100BFC1F3421501F01F03012691
:1007A00006FA03F3012D02D19689334006E0022DAB
:1007B00002D1168A334001E0968A33400C1201269A
:1007C00006FA04F41688344013B10CB1012000E09D
:1007D000002070BD2DE9F04786B005460E46002486
:1007E000A24600BFA1460027B08900B100BF2F4636
:1007F0002C8A4CF6FF700440F08804432C82AC89AC
:100800004EF6F3100440B0883189084371890843DB
:100810000443AC81AC8A4FF6FF400440B0890443E6
:10082000AC8201A8FFF75EFE1F48874202D1DDF8C7
:1008300010A001E0DDF80CA0A88900F4004040B150
:100840000AEBCA0000EB0A1031684900B0FBF1F86E
:1008500007E00AEBCA0000EB0A1031688900B0FB20
:10086000F1F86420B8FBF0F004012009642101FBD9
:100870001089A88900F4004040B1322000EBC90083
:10088000B0FBF1F000F00700044308E0322000EB79
:1008900009106421B0FBF1F000F00F0004432C813B
:1008A00006B0BDE8F08700000038014001468888A6
:1008B000C0F308007047C1F308028280704700BF90
:1008C000FEE70000FFF79EFDFFF770FD4FF4A0600C
:1008D000FFF7DCFD1DE00F48FFF7E8FF0446002CA2
:1008E00017DD012C02D0022C12D108E020210A4889
:1008F000FFF755FD20210948FFF74FFD08E02021B3
:100900000648FFF74CFD20210348FFF746FD00BFD6
:1009100000BFE0E700440040000C01400018014027
:100920004009000800000020140000006C010008CD
:100930005409000814000020640600008801000823
:100940000000000001020304010203040607080975
:04095000020406088F
:0400000508000131BD
:00000001FF
